:020000040800F2
:100000000000022069030008F5030008F50300085A
:10001000F5030008F5030008F503000800000000E0
:10002000000000000000000000000000F5030008D0
:10003000F503000800000000F5030008F5030008C0
:10004000F5030008F5030008F5030008F5030008B0
:1000500000000000F5030008F5030008F5030008A0
:10006000F5030008F5030008F5030008F503000890
:10007000F5030008F5030008F5030008F503000880
:10008000F5030008F5030008F5030008F503000870
:10009000F5030008F5030008F5030008F503000860
:1000A000F5030008F5030008F5030008F503000850
:1000B000F5030008F5030008F5030008F503000840
:1000C000F5030008F5030008F5030008F503000830
:1000D000F5030008F5030008F5030008F503000820
:1000E000F5030008F5030008F5030008F503000810
:1000F000F5030008F5030008F5030008F503000800
:10010000F5030008F5030008F5030008F5030008EF
:10011000F5030008F5030008F5030008F5030008DF
:10012000F5030008F5030008F5030008F5030008CF
:10013000F5030008F5030008F5030008F5030008BF
:10014000F5030008F5030008F5030008F5030008AF
:10015000F5030008F5030008F5030008F50300089F
:10016000F5030008F5030008F5030008F50300088F
:10017000F5030008F5030008F5030008F50300087F
:10018000F5030008F503000800000000000000006F
:10019000000000000000000000000000000000005F
:0801A000F5030008F503000857
:1001A80010B5054C237833B9044B13B10448AFF3A9
:1001B80000800123237010BD04000020000000000F
:1001C800D406000808B5034B1BB103490348AFF335
:1001D800008008BD0000000008000020D4060008C8
:1001E800034AD2F8883043F47003C2F88830704765
:1001F80000ED00E0164A936803F00C03042B0CD0C2
:10020800082B0CD0134B124A134892681349C2F3B7
:100218000312825CD3400B607047114BF3E75368BD
:10022800516813F4800F01F03F01536814BF0C4A62
:10023800084AB2FBF1F1064A5268C2F30142C3F31D
:100248008813013201FB03F35200B3FBF2F3DAE740
:10025800003802400024F400EC06000800000020EA
:1002680000127A0008B5FFF7C5FFBDE8084000F0A6
:10027800DFB900BF08B5FFF7BDFF00F0D9F9354B6E
:10028800354C196B41F013011963186B20F002000B
:100298001863C0220121204600F03EF9A3692F48C7
:1002A80043F0C003A361A36943F48003A3616368B7
:1002B80023F040036360636843F04003636063684E
:1002C80023F0400318224FF4A161636000F0C2F8E4
:1002D800224A13691B07FCD4136913F0180F0DD0B9
:1002E8001D4C1E4D636983F0400363614FF47A70BF
:1002F80000F0BCF92B6913F0180FF3D140F2CF705E
:1003080000F0B4F9154C0821204600F071F80128D6
:10031800F9D01248104C1822002100F02DF90E488F
:100328004022012100F010F90B4848F20102012196
:1003380000F03AF9A36943F0C003A361142000F068
:1003480095F9A36943F4400340F2D330A36100F068
:100358008DF9EFE70038024000000240001002402B
:1003680017488546FFF73CFF16481749174A0023E8
:1003780002E0D458C4500433C4188C42F9D3144A48
:10038800144C002301E013600432A242FBD312484C
:100398001249134A002302E0D458C4500433C41845
:1003A8008C42F9D30F4A104C002301E01360043249
:1003B800A242FBD300F066F9FFF75CFFFEE70000FE
:1003C80000000220000000200400002010070008A0
:1003D8000400002028000020000000100000001089
:1003E800140700080000001000000010FEE70000DD
:1003F80080B485B000AF78600B467B807B8843F47F
:1004080080331A467B68DA617A887B68DA617B8890
:1004180043F480331A467B68DA617B68DB69FB60EA
:10042800FB680133FB607B68DB691B0C002B0CBF8E
:1004380001230023DBB218461437BD465DF8047B60
:10044800704700BF08B5FFF7D5FEBDE8084000F0CB
:10045800EFB800BF2DE97043CD054FEA112E17D52F
:1004680001F003089446002303261CF0010F06FA46
:1004780003F94FEA5C0C08D0056825EA0905056010
:10048800056808FA03F42C4304600233202BECD1EE
:100498001EF0020F08D0436823EA02034360436852
:1004A8004C0748BF134343601EF0040F17D0C1F335
:1004B800C1089446002303261CF0010F06FA03F92D
:1004C8004FEA5C0C08D0C56825EA0905C560C5680F
:1004D80008FA03F42C43C4600233202BECD11EF03D
:1004E800080F17D0C1F3411600234FF0030C12F088
:1004F800010F0CFA03F54FEA520208D0846824EA87
:1005080005048460846806FA03F12143816002339C
:10051800202BECD1BDE8708330B500234FF0030EDB
:1005280012F0010F0EFA03FC4FEA520208D00568D8
:1005380025EA0C050560056801FA03F42C430460FC
:100548000233202BECD130BD30B500234FF0030E21
:1005580012F0010F0EFA03FC4FEA520208D0856828
:1005680025EA0C058560856801FA03F42C4384604C
:100578000233202BECD130BD30B500234FF0030EF1
:1005880012F0010F0EFA03FC4FEA520208D0C568B8
:1005980025EA0C05C560C56801FA03F42C43C4605C
:1005A8000233202BECD130BD2DE970414FF0040C03
:1005B8004FF0000E0F2518E0203BDBB2BEF11F0FF5
:1005C80005FA0EF805FA03F601FA0EF419D8036ACB
:1005D80023EA08030362036A1C43520804620CF10D
:1005E800040C5FFA8CFC0EF1040E12F0010F5FFA96
:1005F8008EF3E1D1BCF1400F4FEA5202EFD1BDE8D2
:100608007081446A24EA06044462446A01FA03F3E6
:100618002343BCF1400F43624FEA5202DFD1EEE7B9
:1006280008B5FFF7E7FDBDE8084000F001B800BFD6
:10063800094A0A4B12680A4810B40A4CA3FB021371
:100648009B09A4FB024208495DF8044B920C09334C
:1006580003600A60704700BF00000020D34D62109D
:100668002000002083DE1B4324000020044A136876
:1006780000BF053B002BFBDC0138F8D1704700BFF9
:100688002000002070B50D4D0D4C641BA4100026F1
:10069800A64209D10B4D0C4C00F018F8641BA410AD
:1006A8000026A64205D170BD55F8043B984701368F
:1006B800EEE755F8043B98470136F2E7FC060008D8
:1006C800FC060008FC0600080C070008F8B500BF87
:1006D800F8BC08BC9E467047F8B500BFF8BC08BC1B
:0406E8009E46704773
:1006EC0000000000000000000102030406070809D6
:1006FC00CD0100086D0200084D0400082906000811
:04070C00A901000837
:040710000024F400CD
:040000050800036983
:00000001FF
