:020000040800F2
:100000000000022031030008BD030008BD03000802
:10001000BD030008BD030008BD0300080000000088
:10002000000000000000000000000000BD03000808
:10003000BD03000800000000BD030008BD03000868
:10004000BD030008BD030008BD030008BD03000890
:1000500000000000BD030008BD030008BD03000848
:10006000BD030008BD030008BD030008BD03000870
:10007000BD030008BD030008BD030008BD03000860
:10008000BD030008BD030008BD030008BD03000850
:10009000BD030008BD030008BD030008BD03000840
:1000A000BD030008BD030008BD030008BD03000830
:1000B000BD030008BD030008BD030008BD03000820
:1000C000BD030008BD030008BD030008BD03000810
:1000D000BD030008BD030008BD030008BD03000800
:1000E000BD030008BD030008BD030008BD030008F0
:1000F000BD030008BD030008BD030008BD030008E0
:10010000BD030008BD030008BD030008BD030008CF
:10011000BD030008BD030008BD030008BD030008BF
:10012000BD030008BD030008BD030008BD030008AF
:10013000BD030008BD030008BD030008BD0300089F
:10014000BD030008BD030008BD030008BD0300088F
:10015000BD030008BD030008BD030008BD0300087F
:10016000BD030008BD030008BD030008BD0300086F
:10017000BD030008BD030008BD030008BD0300085F
:10018000BD030008BD0300080000000000000000DF
:10019000000000000000000000000000000000005F
:0801A000BD030008BD030008C7
:1001A80010B5054C237833B9044B13B10448AFF3A9
:1001B80000800123237010BD04000020000000000F
:1001C8009005000808B5034B1BB103490348AFF37A
:1001D800008008BD0000000008000020900500080D
:1001E800034AD2F8883043F47003C2F88830704765
:1001F80000ED00E0164A936803F00C03042B0CD0C2
:10020800082B0CD0134B124A134892681349C2F3B7
:100218000312825CD3400B607047114BF3E75368BD
:10022800516813F4800F01F03F01536814BF0C4A62
:10023800084AB2FBF1F1064A5268C2F30142C3F31D
:100248008813013201FB03F35200B3FBF2F3DAE740
:10025800003802400024F400A8050008000000202F
:1002680000127A0008B5FFF7C5FFBDE8084000F0A6
:100278003DB900BF80B5244F24483B6B244D254C25
:100288000122134303213B6300F09EF87B6C43F487
:10029800E0637B647B6C2E4623F4C0637B641E4B57
:1002A80046F8123B204600F0C7F800220323114607
:1002B800204600F0A9F8194A536843F40003536034
:1002C800A368174A43F00103B2F80090A36002271D
:1002D80040F6E448204600F0E3F8287880B1114A57
:1002E8000138C0B202F1200117FB006032F8023F6A
:1002F800824208FB03F3B3FBF9F341F8043FF5D15D
:10030800642000F011F9E5E70038024000000240DF
:1003180020000020002001400300111000230140AC
:10032800B80500083000002017488546FFF758FF39
:1003380016481749174A002302E0D458C45004331A
:10034800C4188C42F9D3144A144C002301E01360FA
:100358000432A242FBD312481249134A002302E096
:10036800D458C4500433C4188C42F9D30F4A104CE3
:10037800002301E013600432A242FBD300F0E0F84E
:10038800FFF778FFFEE700000000022000000020D1
:1003980004000020D8050008040000209C0000206C
:1003A8000000001000000010DC050008000000102C
:1003B80000000010FEE7000008B5FFF71BFFBDE8CE
:1003C800084000F093B800BF30B500234FF0030E8B
:1003D80012F0010F0EFA03FC4FEA520208D005682A
:1003E80025EA0C050560056801FA03F42C4304604E
:1003F8000233202BECD130BD08B5FFF7FBFEBDE87A
:10040800084000F073B800BFF0B40A4E00247460CE
:10041800776847EA034777604460456845EA0161C1
:1004280041608460836843EAC22242F48062F0BC7F
:10043800826070470023014070B418490022C262EC
:100448000D7802634263C36A6C1E43EA0453C362B5
:10045800FDB1134694460FE0BCF10C0F14D9C66ADF
:1004680094403443C46201335FFA83FC654501F16B
:10047800010102F105020CD9062B4C78ECD8466B29
:10048800944034434463EEE7066B9440344304637A
:10049800E9E7002370BC0360704700BF200000201C
:1004A8000D4A8168137841F08041816073B1013B46
:1004B80002F11201DBB2103201EB430103689B0722
:1004C800FCD5C36C22F8023F8A42F7D1036823F0B7
:1004D80010030360704700BF2000002008B5FFF735
:1004E80089FEBDE8084000F001B800BF094A0A4B80
:1004F80012680A4810B40A4CA3FB02139B09A4FB18
:10050800024208495DF8044B920C093303600A6003
:10051800704700BF00000020D34D621094000020F7
:1005280083DE1B4398000020044A136800BF053B84
:10053800002BFBDC0138F8D1704700BF9400002085
:1005480070B50D4D0D4C641BA4100026A64209D1B0
:100558000B4D0C4C00F018F8641BA4100026A642A2
:1005680005D170BD55F8043B98470136EEE755F8BC
:10057800043B98470136F2E7C0050008C0050008AB
:10058800C0050008D4050008F8B500BFF8BC08BCD1
:100598009E467047F8B500BFF8BC08BC9E46704739
:1005A800000000000000000001020304060708091B
:0805B800FF0FFF03FF003F00ED
:1005C000CD0100086D020008C10300080104000805
:0405D000E504000836
:0405D400A901000871
:0405D8000024F40007
:0400000508000331BB
:00000001FF
