:020000040800F2
:100000000000022005030008910300089103000886
:10001000910300089103000891030008000000000C
:100020000000000000000000000000009103000834
:1000300091030008000000009103000891030008EC
:100040009103000891030008910300089103000840
:1000500000000000910300089103000891030008CC
:100060009103000891030008910300089103000820
:100070009103000891030008910300089103000810
:100080009103000891030008910300089103000800
:1000900091030008910300089103000891030008F0
:1000A00091030008910300089103000891030008E0
:1000B00091030008910300089103000891030008D0
:1000C00091030008910300089103000891030008C0
:1000D00091030008910300089103000891030008B0
:1000E00091030008910300089103000891030008A0
:1000F0009103000891030008910300089103000890
:10010000910300089103000891030008910300087F
:10011000910300089103000891030008910300086F
:10012000910300089103000891030008910300085F
:10013000910300089103000891030008910300084F
:10014000910300089103000891030008910300083F
:10015000910300089103000891030008910300082F
:10016000910300089103000891030008910300081F
:10017000910300089103000891030008910300080F
:100180009103000891030008000000000000000037
:10019000000000000000000000000000000000005F
:0801A00091030008910300081F
:1001A80010B5054C237833B9044B13B10448AFF3A9
:1001B80000800123237010BD08000020000000000B
:1001C8004808000808B5034B1BB103490348AFF3BF
:1001D800008008BD000000000C000020480800084E
:1001E800034AD2F8883043F47003C2F88830704765
:1001F80000ED00E0224B9B6803F00C03042B14D0A5
:10020800082B16D01BB11F4B1F4A1A6002E01D4B6A
:100218001D4A1A601A4B9B68C3F303131B4AD15C2F
:10022800184A1368CB4013607047164B184A1A6077
:10023800F0E7134B59685A6802F03F0211F4800F37
:1002480013D0134BB3FBF2F30D4A5268C2F3881272
:1002580002FB03F30A4A5268C2F301420132520018
:10026800B3FBF2F3074A1360D4E7074BB3FBF2F38F
:10027800034A5268C2F3881202FB03F3EAE700BF9D
:1002880000380240000000200024F4007408000830
:1002980000127A0008B5FFF7ADFF00F089FA08BD33
:1002A80008B54FF48001642000F05EF900F0FAF917
:1002B80000F0D6F90E4800F0C1F80E4A136B43F06F
:1002C800010313630C4C40220121204600F063F81F
:1002D80040220321204600F084F8074A536983F03E
:1002E8004003536140F2111000F07AFAF5E700BFBD
:1002F800000001010038024000000240174885460E
:10030800FFF76EFF16481749174A002302E0D45832
:10031800C4500433C4188C42F9D3144A144C002333
:1003280001E013600432A242FBD312481249134A77
:10033800002302E0D458C4500433C4188C42F9D3C3
:100348000F4A104C002301E013600432A242FBD391
:1003580000F052FAFFF7A4FFFEE7000000000220B9
:100368000000002008000020A00800080800002065
:10037800380000200000001000000010A808000845
:100388000000001000000010FEE708B5FFF732FF7C
:1003980000F00EFA08BD002305E05DF8044B704735
:1003A80052080233DBB21F2B1AD812F0010FF7D014
:1003B80010B404684FF0030C0CFA03FC24EA0C0494
:1003C8000460046801FA03FC44EA0C04046052085F
:1003D8000233DBB21F2BE0D812F0010FF7D0E8E7A9
:1003E8007047002305E05DF8044B7047520802335C
:1003F800DBB21F2B1AD812F0010FF7D010B48468A3
:100408004FF0030C0CFA03FC24EA0C0484608468A3
:1004180001FA03FC44EA0C04846052080233DBB29C
:100428001F2BE0D812F0010FF7D0E8E7704708B5A6
:10043800FFF7E0FE00F0BCF908BD000070B586B01B
:1004480004460DF1040C414D0FCDACE80F002B68AC
:10045800CCF8003004F0807624F08070B0F5803F4E
:100468005DD0002502223A490B6803430B60384BE4
:100478001B681342FBD0002E55D0354A13681E4323
:100488001660334B1B6813F0007FFAD030498B6835
:1004980023F47C4323F0F0038B608D682D48C378E8
:1004A80003F0070306AA02EB830353F8146C82785F
:1004B800520906AB03EB820252F8143C9B0243EA52
:1004C80046332B438B604268234B1A600225224B2C
:1004D8001868224B1B68984231D8AA001C4B9968AF
:1004E80021F00301996099680D439D60184B9B6842
:1004F80032EA0303FAD1184B1868184B1B68984264
:1005080020D3FFF777FE00F053F9114B1868044029
:1005180004F0013424F480741C6006B070BD012519
:100528004FF400329FE7012D05D0002DCFD10A4BA3
:100538000B4A1A60CBE7084B0A4A1A60C7E700F073
:10054800C5F8CAE700F0C2F8DBE700BF600800089A
:100558000038024024000020040000200000002091
:100568000024F40000127A0010B483B0344A916079
:10057800344B00FB03F35360334B0193B1F5800F09
:1005880055D0324C2E4A136843F4C03313602C4BB9
:100598001B68C3F3C13303F108026A4412F8042C40
:1005A80000FB02F2B2F5D87F08D92549013B0A6859
:1005B80063F3D0320A6012F4C03FE8D1204A1368CE
:1005C800C3F3C13308336B4413F8043C00FB03F353
:1005D8001F49A1FB0414E40C117864F305011170A0
:1005E800C3F34804118864F38E1111801949A1FBE3
:1005F8000313C3F34313917863F344019170012B00
:1006080017D943081449A1FB03239B080C4A947883
:1006180063F3471494708008A1FB00308008D378F6
:1006280060F30203D37003B05DF8044B70470B4CC2
:10063800A8E71346CAB2022161F344029A70E0E7C0
:100648002400002040420F00020406080024F400A1
:1006580083DE1B43ABAAAAAA310CC33000127A006E
:1006680010B40E4C61680E4A9378C3F343001368C4
:10067800C3F3C1331B0443EA00631088C0F3881036
:1006880043EA8013107800F03F0003439268134355
:100698000B4363605DF8044B704700BF00380240AD
:1006A80024000020054A536823F0746323F45F3361
:1006B80023F47F7323F0030353607047003802402C
:1006C80008B5FFF797FD00F073F808BD2F4B984267
:1006D80009D82F4B1A6822F4E0621A601A6842F4AB
:1006E800E0621A6070472B4B98420DD8284A13686D
:1006F80023F4E06323F001031360136843F4E06319
:1007080043F0010313607047234B98420DD8204AE9
:10071800136823F4E06323F002031360136843F4BF
:10072800E06343F00203136070471C4B98420DD8F6
:10073800174A136823F4E06323F003031360136874
:1007480043F4E06343F0030313607047144B98428B
:100758000DD80F4A136823F4E06323F004031360F1
:10076800136843F4E06343F0040313607047084AD6
:10077800136823F4E06323F005031360136843F45C
:10078800E06343F005031360704700BF80C3C901ED
:10079800003C024000879303804A5D05000E27074E
:1007A80080D1F00808B5FFF725FD00F001F808BD75
:1007B800074B1B68074AA2FB03139B0906490B60FA
:1007C800A2FB030292090548026009330B607047D7
:1007D80000000020D34D62103000002034000020BB
:1007E800044A136800BF053B002BFBDC0138F8D135
:1007F800704700BF3000002070B50D4D0D4C641BD4
:10080800A4100026A64209D10B4D0C4C00F018F894
:10081800641BA4100026A64205D170BD55F8043B00
:1008280098470136EEE755F8043B98470136F2E75A
:100838008408000884080008840800089C08000848
:10084800F8B500BFF8BC08BC9E467047F8B500BFB5
:08085800F8BC08BC9E46704785
:100860000000000000010000010100001001000074
:10087000110100000000000000000000010203045C
:040880000607080956
:10088400CD0100089D020008930300083704000806
:08089400C9060008AD070008C9
:04089C00A9010008A6
:0808A0000024F4000024F40020
:0400000508000305E7
:00000001FF
