:020000040800F2
:10000000000002200903000895030008950300087A
:100010009503000895030008950300080000000000
:100020000000000000000000000000009503000830
:1000300095030008000000009503000895030008E0
:100040009503000895030008950300089503000830
:1000500000000000950300089503000895030008C0
:100060009503000895030008950300089503000810
:100070009503000895030008950300089503000800
:1000800095030008950300089503000895030008F0
:1000900095030008950300089503000895030008E0
:1000A00095030008950300089503000895030008D0
:1000B00095030008950300089503000895030008C0
:1000C00095030008950300089503000895030008B0
:1000D00095030008950300089503000895030008A0
:1000E0009503000895030008950300089503000890
:1000F0009503000895030008950300089503000880
:10010000950300089503000895030008950300086F
:10011000950300089503000895030008950300085F
:10012000950300089503000895030008950300084F
:10013000950300089503000895030008950300083F
:10014000950300089503000895030008950300082F
:10015000950300089503000895030008950300081F
:10016000950300089503000895030008950300080F
:1001700095030008950300089503000895030008FF
:10018000950300089503000800000000000000002F
:10019000000000000000000000000000000000005F
:0801A000950300089503000817
:1001A80010B5054C237833B9044B13B10448AFF3A9
:1001B80000800123237010BD08000020000000000B
:1001C8006C07000808B5034B1BB103490348AFF39C
:1001D800008008BD000000000C0000206C0700082B
:1001E800034AD2F8883043F47003C2F88830704765
:1001F80000ED00E0164A936803F00C03042B0CD0C2
:10020800082B0CD0134B124A134892681349C2F3B7
:100218000312825CD3400B607047114BF3E75368BD
:10022800516813F4800F01F03F01536814BF0C4A62
:10023800084AB2FBF1F1064A5268C2F30142C3F31D
:100248008813013201FB03F35200B3FBF2F3DAE740
:10025800003802400024F40098070008000000203D
:1002680000127A0008B54FF4803000F091F84FF48E
:100278008001A82000F028F900F0B4F900F090F906
:100288001D4800F085F8012000F082F84FF4800145
:10029800642000F019F900F0A5F900F081F916487A
:1002A80000F076F84FF4803000F072F8134B1A6BB8
:1002B80042F001021A631A6B22F001021A631A6BE8
:1002C80042F002021A631A6942F002021A611A69BC
:1002D80022F002021A611A6B22F002021A631A6BE8
:1002E80042F003021A631A6B22F003021A63012018
:1002F80000F008FAFBE700BF0000010100380240E7
:1003080017488546FFF76CFF16481749174A002318
:1003180002E0D458C4500433C4188C42F9D3144AA8
:10032800144C002301E013600432A242FBD31248AC
:100338001249134A002302E0D458C4500433C418A5
:100348008C42F9D30F4A104C002301E013600432A9
:10035800A242FBD300F0E2F9FFF784FFFEE70000BA
:10036800000002200000002008000020B00700085C
:1003780008000020380000200000001000000010D5
:10038800B80700080000001000000010FEE7000099
:100398002DE9F043454F464C20F08079054600F0A2
:1003A80080780FCF87B00DF1040EAEE80F003B68E0
:1003B800CEF800302368B9F5803F43EA09030BBF44
:1003C800012600264FF4003C4FF0020C23602368FE
:1003D80013EA0C0FFBD0B8F1000F4AD02368344A57
:1003E80043EA0803236013689B01FCD593683148EE
:1003F800DFF8D08023F47C4323F0F0039360837804
:10040800C178406806AC5B0904EB830301F007017F
:1004180004EB810153F8143C51F8144C91689B0289
:1004280043EA44330B4393600824C8F800000226CB
:10043800214F3968814228D31D4A936823F003036A
:10044800936093681E439660936834EA0303FBD174
:10045800884220D3FFF7CEFE00F036F9144A13681D
:100468002B4003F0013323F48073136007B0BDE819
:10047800F083012E12D0104F10483968DFF84480FD
:1004880081423446C8F80000D6D200F0B5F8D8F852
:1004980000003968D0E700F0AFF8DBE7DFF8248028
:1004A8000748C8F800000424C2E700BF8407000812
:1004B8000038024024000020000000200024F4003E
:1004C80000127A000400002030B5304C304A25680C
:1004D800304B83B0B1F5800F00FB02F245F4C03514
:1004E800C4E90121019325600CBF4FF0040E4FF0C1
:1004F800080E0021082208E0226863F3D03212F4C3
:10050800C03F22603DD01CF8042C01F0030383F0A7
:100518000303013B10FB02F203F0030303F1080598
:10052800B2F5D87F0DEB050C01F10101E4DC21885F
:10053800194DC2F3480321F4FF414EEA831321F019
:100548007F010B4315492380A1FB0232C2F34312FA
:10055800A378012A98BF022262F344034208A370D9
:10056800A5FB021283086188A5FB030392085201C8
:100578009B0842EA032321F4FC621343638003B01F
:1005880030BD1CF8042C12FB00F2D0E72400002038
:1005980040420F0002040608310CC330ABAAAAAAD5
:1005A8000E4A136892F802C01078C3F3C133CCF333
:1005B800430C1B0410B400F03F00094C43EA0C63E1
:1005C8000343108861689268C0F3881043EA801377
:1005D8000A43134363605DF8044B7047240000200E
:1005E80000380240024A034953680B405360704781
:1005F800003802400080BCF02D4B984209D82D4BA2
:100608001A6822F4E0621A601A6842F4E0621A601A
:100618007047294B98420DD8264A136823F4E063A3
:1006280023F001031360136843F4E06343F001030C
:1006380013607047214B984210D9214B98421BD820
:100648001C4A136823F4E06323F003031360136860
:1006580043F4E06343F0030313607047154A1368DB
:1006680023F4E06323F002031360136843F4E063A8
:1006780043F0020313607047124B0E4A9842136806
:1006880023F4E06309D823F004031360136843F4E8
:10069800E06343F004031360704723F0050313601D
:1006A800136843F4E06343F005031360704700BF29
:1006B80080C3C901003C024000879303804A5D055E
:1006C800000E270780D1F008094A0A4B12680A4829
:1006D80010B40A4CA3FB02139B09A4FB024208496D
:1006E8005DF8044B920C093303600A60704700BF41
:1006F80000000020D34D62103000002083DE1B4331
:1007080034000020044A136800BF053B002BFBDCC3
:100718000138F8D1704700BF3000002070B50D4D8A
:100728000D4C641BA4100026A64209D10B4D0C4C9D
:1007380000F018F8641BA4100026A64205D170BD6D
:1007480055F8043B98470136EEE755F8043B9847BF
:100758000136F2E7A8070008A8070008A80700085C
:10076800AC070008F8B500BFF8BC08BC9E46704747
:0C077800F8B500BFF8BC08BC9E467047F6
:100784000000000000010000010100001001000051
:100794001101000000000000000000000102030439
:0407A4000607080933
:0407A800CD01000877
:0407AC00A901000897
:0807B0000024F4000024F40011
:0400000508000309E3
:00000001FF
